{
  "contractName": "Marketplace",
  "abi": [
    {
      "constant": true,
      "inputs": [],
      "name": "serviceCount",
      "outputs": [
        {
          "name": "",
          "type": "uint256"
        }
      ],
      "payable": false,
      "stateMutability": "view",
      "type": "function",
      "signature": "0x06237526"
    },
    {
      "constant": true,
      "inputs": [],
      "name": "name",
      "outputs": [
        {
          "name": "",
          "type": "string"
        }
      ],
      "payable": false,
      "stateMutability": "view",
      "type": "function",
      "signature": "0x06fdde03"
    },
    {
      "constant": true,
      "inputs": [
        {
          "name": "",
          "type": "uint256"
        }
      ],
      "name": "services",
      "outputs": [
        {
          "name": "id",
          "type": "uint256"
        },
        {
          "name": "name",
          "type": "string"
        },
        {
          "name": "price",
          "type": "uint256"
        },
        {
          "name": "timeInMinutes",
          "type": "uint256"
        },
        {
          "name": "root",
          "type": "bytes32"
        },
        {
          "name": "owner",
          "type": "address"
        },
        {
          "name": "purchased",
          "type": "bool"
        }
      ],
      "payable": false,
      "stateMutability": "view",
      "type": "function",
      "signature": "0xc22c4f43"
    },
    {
      "inputs": [],
      "payable": false,
      "stateMutability": "nonpayable",
      "type": "constructor",
      "signature": "constructor"
    },
    {
      "anonymous": false,
      "inputs": [
        {
          "indexed": false,
          "name": "id",
          "type": "uint256"
        },
        {
          "indexed": false,
          "name": "name",
          "type": "string"
        },
        {
          "indexed": false,
          "name": "price",
          "type": "uint256"
        },
        {
          "indexed": false,
          "name": "timeInMinutes",
          "type": "uint256"
        },
        {
          "indexed": false,
          "name": "owner",
          "type": "address"
        },
        {
          "indexed": false,
          "name": "purchased",
          "type": "bool"
        }
      ],
      "name": "ServiceCreated",
      "type": "event",
      "signature": "0xa57818bcce639223c4bcde866e0bbdf5ad3dd2bb71bf64c22c1d569b3451361c"
    },
    {
      "anonymous": false,
      "inputs": [
        {
          "indexed": false,
          "name": "id",
          "type": "uint256"
        },
        {
          "indexed": false,
          "name": "name",
          "type": "string"
        },
        {
          "indexed": false,
          "name": "price",
          "type": "uint256"
        },
        {
          "indexed": false,
          "name": "timeInMinutes",
          "type": "uint256"
        },
        {
          "indexed": false,
          "name": "data",
          "type": "bytes32[]"
        },
        {
          "indexed": false,
          "name": "root",
          "type": "bytes32"
        },
        {
          "indexed": false,
          "name": "owner",
          "type": "address"
        },
        {
          "indexed": false,
          "name": "purchased",
          "type": "bool"
        }
      ],
      "name": "ServicePurchased",
      "type": "event",
      "signature": "0xcc397254137f170767f14b1326cbe33c3682e2333c5e44c41616c4bc38a10182"
    },
    {
      "anonymous": false,
      "inputs": [
        {
          "indexed": false,
          "name": "id",
          "type": "uint256"
        },
        {
          "indexed": false,
          "name": "name",
          "type": "string"
        },
        {
          "indexed": false,
          "name": "price",
          "type": "uint256"
        },
        {
          "indexed": false,
          "name": "timeInMinutes",
          "type": "uint256"
        },
        {
          "indexed": false,
          "name": "owner",
          "type": "address"
        }
      ],
      "name": "ServiceRemoved",
      "type": "event",
      "signature": "0xcf4591cf2328393327ddb3696e50111ae979280d6d308307e75df4555d1f5884"
    },
    {
      "constant": false,
      "inputs": [
        {
          "name": "_name",
          "type": "string"
        },
        {
          "name": "_price",
          "type": "uint256"
        },
        {
          "name": "_timeInMinutes",
          "type": "uint256"
        }
      ],
      "name": "createService",
      "outputs": [],
      "payable": false,
      "stateMutability": "nonpayable",
      "type": "function",
      "signature": "0x186166fe"
    },
    {
      "constant": false,
      "inputs": [
        {
          "name": "_id",
          "type": "uint256"
        },
        {
          "name": "_data",
          "type": "bytes32[]"
        },
        {
          "name": "_root",
          "type": "bytes32"
        }
      ],
      "name": "purchaseService",
      "outputs": [],
      "payable": true,
      "stateMutability": "payable",
      "type": "function",
      "signature": "0x8d412a00"
    },
    {
      "constant": false,
      "inputs": [
        {
          "name": "_id",
          "type": "uint256"
        }
      ],
      "name": "removeService",
      "outputs": [],
      "payable": false,
      "stateMutability": "nonpayable",
      "type": "function",
      "signature": "0x9b66b139"
    },
    {
      "constant": true,
      "inputs": [
        {
          "name": "_id",
          "type": "uint256"
        }
      ],
      "name": "getInputDataOfServiceId",
      "outputs": [
        {
          "name": "",
          "type": "bytes32[]"
        }
      ],
      "payable": false,
      "stateMutability": "view",
      "type": "function",
      "signature": "0xaef01767"
    },
    {
      "constant": true,
      "inputs": [
        {
          "name": "_id",
          "type": "uint256"
        }
      ],
      "name": "getRootOfServiceId",
      "outputs": [
        {
          "name": "",
          "type": "bytes32"
        }
      ],
      "payable": false,
      "stateMutability": "view",
      "type": "function",
      "signature": "0x8562b62d"
    }
  ],
  "bytecode": "0x608060405260006001553480156200001657600080fd5b506040805190810160405280601881526020017f49524944494120537761726d204d61726b6574706c616365000000000000000081525060009080519060200190620000649291906200006b565b506200011a565b828054600181600116156101000203166002900490600052602060002090601f016020900481019282601f10620000ae57805160ff1916838001178555620000df565b82800160010185558215620000df579182015b82811115620000de578251825591602001919060010190620000c1565b5b509050620000ee9190620000f2565b5090565b6200011791905b8082111562000113576000816000905550600101620000f9565b5090565b90565b611527806200012a6000396000f3fe60806040526004361061008e576000357c0100000000000000000000000000000000000000000000000000000000900463ffffffff168063062375261461009357806306fdde03146100be578063186166fe1461014e5780638562b62d1461022a5780638d412a00146102795780639b66b13914610345578063aef0176714610380578063c22c4f4314610410575b600080fd5b34801561009f57600080fd5b506100a861051e565b6040518082815260200191505060405180910390f35b3480156100ca57600080fd5b506100d3610524565b6040518080602001828103825283818151815260200191508051906020019080838360005b838110156101135780820151818401526020810190506100f8565b50505050905090810190601f1680156101405780820380516001836020036101000a031916815260200191505b509250505060405180910390f35b34801561015a57600080fd5b506102286004803603606081101561017157600080fd5b810190808035906020019064010000000081111561018e57600080fd5b8201836020820111156101a057600080fd5b803590602001918460018302840111640100000000831117156101c257600080fd5b91908080601f016020809104026020016040519081016040528093929190818152602001838380828437600081840152601f19601f82011690508083019250505050505050919291929080359060200190929190803590602001909291905050506105c2565b005b34801561023657600080fd5b506102636004803603602081101561024d57600080fd5b8101908080359060200190929190505050610869565b6040518082815260200191505060405180910390f35b6103436004803603606081101561028f57600080fd5b8101908080359060200190929190803590602001906401000000008111156102b657600080fd5b8201836020820111156102c857600080fd5b803590602001918460208302840111640100000000831117156102ea57600080fd5b919080806020026020016040519081016040528093929190818152602001838360200280828437600081840152601f19601f82011690508083019250505050505050919291929080359060200190929190505050610889565b005b34801561035157600080fd5b5061037e6004803603602081101561036857600080fd5b8101908080359060200190929190505050610dd2565b005b34801561038c57600080fd5b506103b9600480360360208110156103a357600080fd5b81019080803590602001909291905050506111a5565b6040518080602001828103825283818151815260200191508051906020019060200280838360005b838110156103fc5780820151818401526020810190506103e1565b505050509050019250505060405180910390f35b34801561041c57600080fd5b506104496004803603602081101561043357600080fd5b8101908080359060200190929190505050611213565b60405180888152602001806020018781526020018681526020018581526020018473ffffffffffffffffffffffffffffffffffffffff1673ffffffffffffffffffffffffffffffffffffffff16815260200183151515158152602001828103825288818151815260200191508051906020019080838360005b838110156104dd5780820151818401526020810190506104c2565b50505050905090810190601f16801561050a5780820380516001836020036101000a031916815260200191505b509850505050505050505060405180910390f35b60015481565b60008054600181600116156101000203166002900480601f0160208091040260200160405190810160405280929190818152602001828054600181600116156101000203166002900480156105ba5780601f1061058f576101008083540402835291602001916105ba565b820191906000526020600020905b81548152906001019060200180831161059d57829003601f168201915b505050505081565b600083511115156105d257600080fd5b6000821115156105e157600080fd5b6000811115156105f057600080fd5b60016000815480929190600101919050555061010060405190810160405280600154815260200184815260200183815260200182815260200160006040519080825280602002602001820160405280156106595781602001602082028038833980820191505090505b508152602001600080191681526020013373ffffffffffffffffffffffffffffffffffffffff168152602001600015158152506002600060015481526020019081526020016000206000820151816000015560208201518160010190805190602001906106c792919061131a565b50604082015181600201556060820151816003015560808201518160040190805190602001906106f892919061139a565b5060a0820151816005015560c08201518160060160006101000a81548173ffffffffffffffffffffffffffffffffffffffff021916908373ffffffffffffffffffffffffffffffffffffffff16021790555060e08201518160060160146101000a81548160ff0219169083151502179055509050507fa57818bcce639223c4bcde866e0bbdf5ad3dd2bb71bf64c22c1d569b3451361c60015484848433600060405180878152602001806020018681526020018581526020018473ffffffffffffffffffffffffffffffffffffffff1673ffffffffffffffffffffffffffffffffffffffff16815260200183151515158152602001828103825287818151815260200191508051906020019080838360005b8381101561082557808201518184015260208101905061080a565b50505050905090810190601f1680156108525780820380516001836020036101000a031916815260200191505b5097505050505050505060405180910390a1505050565b600060026000838152602001908152602001600020600501549050919050565b6108916113e7565b60026000858152602001908152602001600020610100604051908101604052908160008201548152602001600182018054600181600116156101000203166002900480601f0160208091040260200160405190810160405280929190818152602001828054600181600116156101000203166002900480156109545780601f1061092957610100808354040283529160200191610954565b820191906000526020600020905b81548152906001019060200180831161093757829003601f168201915b505050505081526020016002820154815260200160038201548152602001600482018054806020026020016040519081016040528092919081815260200182805480156109c057602002820191906000526020600020905b8154815260200190600101908083116109ac575b50505050508152602001600582015481526020016006820160009054906101000a900473ffffffffffffffffffffffffffffffffffffffff1673ffffffffffffffffffffffffffffffffffffffff1673ffffffffffffffffffffffffffffffffffffffff1681526020016006820160149054906101000a900460ff161515151581525050905060008160c00151905060008260000151118015610a695750600154826000015111155b1515610a7457600080fd5b81604001513410151515610a8757600080fd5b8160e00151151515610a9857600080fd5b3373ffffffffffffffffffffffffffffffffffffffff168173ffffffffffffffffffffffffffffffffffffffff1614151515610ad357600080fd5b60008451111515610ae357600080fd5b60006001028314151515610af657600080fd5b838260800181905250828260a0018181525050338260c0019073ffffffffffffffffffffffffffffffffffffffff16908173ffffffffffffffffffffffffffffffffffffffff168152505060018260e00190151590811515815250508160026000878152602001908152602001600020600082015181600001556020820151816001019080519060200190610b8c92919061131a565b5060408201518160020155606082015181600301556080820151816004019080519060200190610bbd92919061139a565b5060a0820151816005015560c08201518160060160006101000a81548173ffffffffffffffffffffffffffffffffffffffff021916908373ffffffffffffffffffffffffffffffffffffffff16021790555060e08201518160060160146101000a81548160ff0219169083151502179055509050508073ffffffffffffffffffffffffffffffffffffffff166108fc349081150290604051600060405180830381858888f19350505050158015610c78573d6000803e3d6000fd5b507fcc397254137f170767f14b1326cbe33c3682e2333c5e44c41616c4bc38a101828583602001518460400151856060015188883360016040518089815260200180602001888152602001878152602001806020018681526020018573ffffffffffffffffffffffffffffffffffffffff1673ffffffffffffffffffffffffffffffffffffffff1681526020018415151515815260200183810383528a818151815260200191508051906020019080838360005b83811015610d47578082015181840152602081019050610d2c565b50505050905090810190601f168015610d745780820380516001836020036101000a031916815260200191505b50838103825287818151815260200191508051906020019060200280838360005b83811015610db0578082015181840152602081019050610d95565b505050509050019a505050505050505050505060405180910390a15050505050565b610dda6113e7565b60026000838152602001908152602001600020610100604051908101604052908160008201548152602001600182018054600181600116156101000203166002900480601f016020809104026020016040519081016040528092919081815260200182805460018160011615610100020316600290048015610e9d5780601f10610e7257610100808354040283529160200191610e9d565b820191906000526020600020905b815481529060010190602001808311610e8057829003601f168201915b50505050508152602001600282015481526020016003820154815260200160048201805480602002602001604051908101604052809291908181526020018280548015610f0957602002820191906000526020600020905b815481526020019060010190808311610ef5575b50505050508152602001600582015481526020016006820160009054906101000a900473ffffffffffffffffffffffffffffffffffffffff1673ffffffffffffffffffffffffffffffffffffffff1673ffffffffffffffffffffffffffffffffffffffff1681526020016006820160149054906101000a900460ff161515151581525050905060008160c00151905060008260000151118015610fb25750600154826000015111155b1515610fbd57600080fd5b8160e00151151515610fce57600080fd5b3373ffffffffffffffffffffffffffffffffffffffff168173ffffffffffffffffffffffffffffffffffffffff1614151561100857600080fd5b600260008481526020019081526020016000206000808201600090556001820160006110349190611448565b600282016000905560038201600090556004820160006110549190611490565b60058201600090556006820160006101000a81549073ffffffffffffffffffffffffffffffffffffffff02191690556006820160146101000a81549060ff02191690555050600160008154809291906001900391905055507fcf4591cf2328393327ddb3696e50111ae979280d6d308307e75df4555d1f5884838360200151846040015185606001513360405180868152602001806020018581526020018481526020018373ffffffffffffffffffffffffffffffffffffffff1673ffffffffffffffffffffffffffffffffffffffff168152602001828103825286818151815260200191508051906020019080838360005b83811015611162578082015181840152602081019050611147565b50505050905090810190601f16801561118f5780820380516001836020036101000a031916815260200191505b50965050505050505060405180910390a1505050565b60606002600083815260200190815260200160002060040180548060200260200160405190810160405280929190818152602001828054801561120757602002820191906000526020600020905b8154815260200190600101908083116111f3575b50505050509050919050565b6002602052806000526040600020600091509050806000015490806001018054600181600116156101000203166002900480601f0160208091040260200160405190810160405280929190818152602001828054600181600116156101000203166002900480156112c55780601f1061129a576101008083540402835291602001916112c5565b820191906000526020600020905b8154815290600101906020018083116112a857829003601f168201915b5050505050908060020154908060030154908060050154908060060160009054906101000a900473ffffffffffffffffffffffffffffffffffffffff16908060060160149054906101000a900460ff16905087565b828054600181600116156101000203166002900490600052602060002090601f016020900481019282601f1061135b57805160ff1916838001178555611389565b82800160010185558215611389579182015b8281111561138857825182559160200191906001019061136d565b5b50905061139691906114b1565b5090565b8280548282559060005260206000209081019282156113d6579160200282015b828111156113d55782518255916020019190600101906113ba565b5b5090506113e391906114d6565b5090565b61010060405190810160405280600081526020016060815260200160008152602001600081526020016060815260200160008019168152602001600073ffffffffffffffffffffffffffffffffffffffff1681526020016000151581525090565b50805460018160011615610100020316600290046000825580601f1061146e575061148d565b601f01602090049060005260206000209081019061148c91906114b1565b5b50565b50805460008255906000526020600020908101906114ae91906114d6565b50565b6114d391905b808211156114cf5760008160009055506001016114b7565b5090565b90565b6114f891905b808211156114f45760008160009055506001016114dc565b5090565b9056fea165627a7a72305820b015a1de395e9cbaeb8160e6489997d0d7eb2d40cd8f13526ec8e1d4282d30e70029",
  "source": "pragma solidity ^0.5.0;\n\ncontract Marketplace {\n  string public name;\n\n  struct Service{\n    uint id;\n    string name;\n    uint price;\n    uint timeInMinutes;\n    bytes32[] data;\n    bytes32 root;\n    address payable owner;\n    bool purchased;\n  }\n\n  uint public serviceCount = 0;\n  mapping(uint => Service) public services;\n\n  // Log event for the creation of the service\n  event ServiceCreated(\n    uint id,\n    string name,\n    uint price,\n    uint timeInMinutes,\n    address payable owner,\n    bool purchased\n  );\n\n  // Log event for paying a service\n  event ServicePurchased(\n    uint id,\n    string name,\n    uint price,\n    uint timeInMinutes,\n    bytes32[] data,\n    bytes32 root,\n    address payable owner,\n    bool purchased\n  );\n\n  // Log event for paying a service\n  event ServiceRemoved(\n    uint id,\n    string name,\n    uint price,\n    uint timeInMinutes,\n    address payable owner\n  );\n\n  constructor() public {\n    name = \"IRIDIA Swarm Marketplace\";\n  }\n\n  function createService(string memory _name, uint _price, uint _timeInMinutes) public {\n    // Make sure parameters are correct:\n    // require a _name\n    require(bytes(_name).length > 0);\n    // require a valid _price\n    require(_price > 0);\n    // require a valid time duration\n    require(_timeInMinutes > 0);\n    // increment service count\n    serviceCount++;\n    // create a service\n    services[serviceCount] = Service(serviceCount, _name, _price, _timeInMinutes, new bytes32[](0), '', msg.sender, false);\n    // trigger an event\n    emit ServiceCreated(serviceCount, _name, _price, _timeInMinutes, msg.sender, false);\n  }\n\n  function purchaseService(uint _id, bytes32[] memory _data, bytes32 _root) public payable {\n    //fetch the services\n    Service memory _service = services[_id];\n    //fetch the owner\n    address payable _seller = _service.owner;\n    //make sure the service has a valid id\n    require(_service.id > 0 && _service.id <= serviceCount);\n    // require that there is enough Ether in the transaction\n    require(msg.value >= _service.price);\n    // Require that the service has not been purchased already\n    require(!_service.purchased);\n    // Require that the buyer is different from the seller\n    require(_seller != msg.sender);\n    // Require that the input data in not null\n    require(_data.length > 0);\n    // Require that the root of the MT in not null\n    require(_root != 0);\n    // assign the received input data inside the service\n    _service.data = _data;\n    // assign the received MT root inside the service\n    _service.root = _root;\n    // transfer ownership to the buyer\n    _service.owner = msg.sender;\n    // mark as purchased\n    _service.purchased = true;\n    // Update the service\n    services[_id] = _service;\n    // pay the seller by sending them Ether\n    address(_seller).transfer(msg.value);\n    // trigger an event\n    emit ServicePurchased(_id, _service.name, _service.price, _service.timeInMinutes, _data, _root, msg.sender, true);\n  }\n\n  function removeService(uint _id) public {\n    //fetch the services\n    Service memory _service = services[_id];\n    //fetch the owner\n    address _seller = _service.owner;\n    //make sure the service has a valid id\n    require(_service.id > 0 && _service.id <= serviceCount);\n    // Require that the service has not been purchased already\n    require(!_service.purchased);\n    // Require that the caller is the seller\n    require(_seller == msg.sender);\n    // Delete the service\n    delete services[_id];\n    //decrease serviceCount\n    serviceCount--;\n    // trigger an event\n    emit ServiceRemoved(_id, _service.name, _service.price, _service.timeInMinutes, msg.sender);\n  }\n\n  function getInputDataOfServiceId(uint _id) public view returns (bytes32[] memory) {\n    return services[_id].data;\n  }\n\n  function getRootOfServiceId(uint _id) public view returns (bytes32) {\n    return services[_id].root;\n  }\n}\n",
  "sourcePath": "/Users/eddie/marketplace/src/contracts/Marketplace.sol",
  "compiler": {
    "name": "solc",
    "version": "0.5.0+commit.1d4f565a.Emscripten.clang"
  },
  "schemaVersion": "3.0.2",
  "updatedAt": "2020-07-09T17:12:55.421Z",
  "devdoc": {
    "methods": {}
  },
  "userdoc": {
    "methods": {}
  }
}