{
  "contractName": "Marketplace",
  "abi": [
    {
      "constant": true,
      "inputs": [],
      "name": "serviceCount",
      "outputs": [
        {
          "name": "",
          "type": "uint256"
        }
      ],
      "payable": false,
      "stateMutability": "view",
      "type": "function",
      "signature": "0x06237526"
    },
    {
      "constant": true,
      "inputs": [],
      "name": "name",
      "outputs": [
        {
          "name": "",
          "type": "string"
        }
      ],
      "payable": false,
      "stateMutability": "view",
      "type": "function",
      "signature": "0x06fdde03"
    },
    {
      "constant": true,
      "inputs": [
        {
          "name": "",
          "type": "uint256"
        }
      ],
      "name": "services",
      "outputs": [
        {
          "name": "id",
          "type": "uint256"
        },
        {
          "name": "name",
          "type": "string"
        },
        {
          "name": "price",
          "type": "uint256"
        },
        {
          "name": "timeInMinutes",
          "type": "uint256"
        },
        {
          "name": "owner",
          "type": "address"
        },
        {
          "name": "purchased",
          "type": "bool"
        }
      ],
      "payable": false,
      "stateMutability": "view",
      "type": "function",
      "signature": "0xc22c4f43"
    },
    {
      "inputs": [],
      "payable": false,
      "stateMutability": "nonpayable",
      "type": "constructor",
      "signature": "constructor"
    },
    {
      "anonymous": false,
      "inputs": [
        {
          "indexed": false,
          "name": "id",
          "type": "uint256"
        },
        {
          "indexed": false,
          "name": "name",
          "type": "string"
        },
        {
          "indexed": false,
          "name": "price",
          "type": "uint256"
        },
        {
          "indexed": false,
          "name": "timeInMinutes",
          "type": "uint256"
        },
        {
          "indexed": false,
          "name": "owner",
          "type": "address"
        },
        {
          "indexed": false,
          "name": "purchased",
          "type": "bool"
        }
      ],
      "name": "ServiceCreated",
      "type": "event",
      "signature": "0xa57818bcce639223c4bcde866e0bbdf5ad3dd2bb71bf64c22c1d569b3451361c"
    },
    {
      "anonymous": false,
      "inputs": [
        {
          "indexed": false,
          "name": "id",
          "type": "uint256"
        },
        {
          "indexed": false,
          "name": "name",
          "type": "string"
        },
        {
          "indexed": false,
          "name": "price",
          "type": "uint256"
        },
        {
          "indexed": false,
          "name": "timeInMinutes",
          "type": "uint256"
        },
        {
          "indexed": false,
          "name": "owner",
          "type": "address"
        },
        {
          "indexed": false,
          "name": "purchased",
          "type": "bool"
        }
      ],
      "name": "ServicePurchased",
      "type": "event",
      "signature": "0xc33f8d34e62d02d5d26d6100f897264e95ad9df3221ca1729e6e150927e63749"
    },
    {
      "anonymous": false,
      "inputs": [
        {
          "indexed": false,
          "name": "id",
          "type": "uint256"
        },
        {
          "indexed": false,
          "name": "name",
          "type": "string"
        },
        {
          "indexed": false,
          "name": "price",
          "type": "uint256"
        },
        {
          "indexed": false,
          "name": "timeInMinutes",
          "type": "uint256"
        },
        {
          "indexed": false,
          "name": "owner",
          "type": "address"
        }
      ],
      "name": "ServiceRemoved",
      "type": "event",
      "signature": "0xcf4591cf2328393327ddb3696e50111ae979280d6d308307e75df4555d1f5884"
    },
    {
      "constant": false,
      "inputs": [
        {
          "name": "_name",
          "type": "string"
        },
        {
          "name": "_price",
          "type": "uint256"
        },
        {
          "name": "_timeInMinutes",
          "type": "uint256"
        }
      ],
      "name": "createService",
      "outputs": [],
      "payable": false,
      "stateMutability": "nonpayable",
      "type": "function",
      "signature": "0x186166fe"
    },
    {
      "constant": false,
      "inputs": [
        {
          "name": "_id",
          "type": "uint256"
        },
        {
          "name": "_inputData",
          "type": "bytes32[]"
        }
      ],
      "name": "purchaseService",
      "outputs": [],
      "payable": true,
      "stateMutability": "payable",
      "type": "function",
      "signature": "0x5c94234a"
    },
    {
      "constant": false,
      "inputs": [
        {
          "name": "_id",
          "type": "uint256"
        }
      ],
      "name": "removeService",
      "outputs": [],
      "payable": false,
      "stateMutability": "nonpayable",
      "type": "function",
      "signature": "0x9b66b139"
    }
  ],
  "bytecode": "0x6080604052600060015534801561001557600080fd5b506040805190810160405280601881526020017f49524944494120537761726d204d61726b6574706c616365000000000000000081525060009080519060200190610061929190610067565b5061010c565b828054600181600116156101000203166002900490600052602060002090601f016020900481019282601f106100a857805160ff19168380011785556100d6565b828001600101855582156100d6579182015b828111156100d55782518255916020019190600101906100ba565b5b5090506100e391906100e7565b5090565b61010991905b808211156101055760008160009055506001016100ed565b5090565b90565b611103806200011c6000396000f3fe608060405260043610610078576000357c0100000000000000000000000000000000000000000000000000000000900463ffffffff168063062375261461007d57806306fdde03146100a8578063186166fe146101385780635c94234a146102145780639b66b139146102d6578063c22c4f4314610311575b600080fd5b34801561008957600080fd5b50610092610418565b6040518082815260200191505060405180910390f35b3480156100b457600080fd5b506100bd61041e565b6040518080602001828103825283818151815260200191508051906020019080838360005b838110156100fd5780820151818401526020810190506100e2565b50505050905090810190601f16801561012a5780820380516001836020036101000a031916815260200191505b509250505060405180910390f35b34801561014457600080fd5b506102126004803603606081101561015b57600080fd5b810190808035906020019064010000000081111561017857600080fd5b82018360208201111561018a57600080fd5b803590602001918460018302840111640100000000831117156101ac57600080fd5b91908080601f016020809104026020016040519081016040528093929190818152602001838380828437600081840152601f19601f82011690508083019250505050505050919291929080359060200190929190803590602001909291905050506104bc565b005b6102d46004803603604081101561022a57600080fd5b81019080803590602001909291908035906020019064010000000081111561025157600080fd5b82018360208201111561026357600080fd5b8035906020019184602083028401116401000000008311171561028557600080fd5b919080806020026020016040519081016040528093929190818152602001838360200280828437600081840152601f19601f8201169050808301925050505050505091929192905050506106fb565b005b3480156102e257600080fd5b5061030f600480360360208110156102f957600080fd5b8101908080359060200190929190505050610b42565b005b34801561031d57600080fd5b5061034a6004803603602081101561033457600080fd5b8101908080359060200190929190505050610e9a565b60405180878152602001806020018681526020018581526020018473ffffffffffffffffffffffffffffffffffffffff1673ffffffffffffffffffffffffffffffffffffffff16815260200183151515158152602001828103825287818151815260200191508051906020019080838360005b838110156103d85780820151818401526020810190506103bd565b50505050905090810190601f1680156104055780820380516001836020036101000a031916815260200191505b5097505050505050505060405180910390f35b60015481565b60008054600181600116156101000203166002900480601f0160208091040260200160405190810160405280929190818152602001828054600181600116156101000203166002900480156104b45780601f10610489576101008083540402835291602001916104b4565b820191906000526020600020905b81548152906001019060200180831161049757829003601f168201915b505050505081565b600083511115156104cc57600080fd5b6000821115156104db57600080fd5b6000811115156104ea57600080fd5b60016000815480929190600101919050555060c06040519081016040528060015481526020018481526020018381526020018281526020013373ffffffffffffffffffffffffffffffffffffffff16815260200160001515815250600260006001548152602001908152602001600020600082015181600001556020820151816001019080519060200190610580929190610f9b565b50604082015181600201556060820151816003015560808201518160040160006101000a81548173ffffffffffffffffffffffffffffffffffffffff021916908373ffffffffffffffffffffffffffffffffffffffff16021790555060a08201518160040160146101000a81548160ff0219169083151502179055509050507fa57818bcce639223c4bcde866e0bbdf5ad3dd2bb71bf64c22c1d569b3451361c60015484848433600060405180878152602001806020018681526020018581526020018473ffffffffffffffffffffffffffffffffffffffff1673ffffffffffffffffffffffffffffffffffffffff16815260200183151515158152602001828103825287818151815260200191508051906020019080838360005b838110156106b757808201518184015260208101905061069c565b50505050905090810190601f1680156106e45780820380516001836020036101000a031916815260200191505b5097505050505050505060405180910390a1505050565b61070361101b565b6002600084815260200190815260200160002060c0604051908101604052908160008201548152602001600182018054600181600116156101000203166002900480601f0160208091040260200160405190810160405280929190818152602001828054600181600116156101000203166002900480156107c55780601f1061079a576101008083540402835291602001916107c5565b820191906000526020600020905b8154815290600101906020018083116107a857829003601f168201915b5050505050815260200160028201548152602001600382015481526020016004820160009054906101000a900473ffffffffffffffffffffffffffffffffffffffff1673ffffffffffffffffffffffffffffffffffffffff1673ffffffffffffffffffffffffffffffffffffffff1681526020016004820160149054906101000a900460ff1615151515815250509050600081608001519050600082600001511180156108785750600154826000015111155b151561088357600080fd5b8160400151341015151561089657600080fd5b8160a001511515156108a757600080fd5b3373ffffffffffffffffffffffffffffffffffffffff168173ffffffffffffffffffffffffffffffffffffffff16141515156108e257600080fd5b600083511115156108f257600080fd5b33826080019073ffffffffffffffffffffffffffffffffffffffff16908173ffffffffffffffffffffffffffffffffffffffff168152505060018260a00190151590811515815250508160026000868152602001908152602001600020600082015181600001556020820151816001019080519060200190610975929190610f9b565b50604082015181600201556060820151816003015560808201518160040160006101000a81548173ffffffffffffffffffffffffffffffffffffffff021916908373ffffffffffffffffffffffffffffffffffffffff16021790555060a08201518160040160146101000a81548160ff0219169083151502179055509050508073ffffffffffffffffffffffffffffffffffffffff166108fc349081150290604051600060405180830381858888f19350505050158015610a3a573d6000803e3d6000fd5b507fc33f8d34e62d02d5d26d6100f897264e95ad9df3221ca1729e6e150927e637498483602001518460400151856060015133600160405180878152602001806020018681526020018581526020018473ffffffffffffffffffffffffffffffffffffffff1673ffffffffffffffffffffffffffffffffffffffff16815260200183151515158152602001828103825287818151815260200191508051906020019080838360005b83811015610afd578082015181840152602081019050610ae2565b50505050905090810190601f168015610b2a5780820380516001836020036101000a031916815260200191505b5097505050505050505060405180910390a150505050565b610b4a61101b565b6002600083815260200190815260200160002060c0604051908101604052908160008201548152602001600182018054600181600116156101000203166002900480601f016020809104026020016040519081016040528092919081815260200182805460018160011615610100020316600290048015610c0c5780601f10610be157610100808354040283529160200191610c0c565b820191906000526020600020905b815481529060010190602001808311610bef57829003601f168201915b5050505050815260200160028201548152602001600382015481526020016004820160009054906101000a900473ffffffffffffffffffffffffffffffffffffffff1673ffffffffffffffffffffffffffffffffffffffff1673ffffffffffffffffffffffffffffffffffffffff1681526020016004820160149054906101000a900460ff161515151581525050905060008160800151905060008260000151118015610cbf5750600154826000015111155b1515610cca57600080fd5b8160a00151151515610cdb57600080fd5b3373ffffffffffffffffffffffffffffffffffffffff168173ffffffffffffffffffffffffffffffffffffffff16141515610d1557600080fd5b60026000848152602001908152602001600020600080820160009055600182016000610d41919061106a565b600282016000905560038201600090556004820160006101000a81549073ffffffffffffffffffffffffffffffffffffffff02191690556004820160146101000a81549060ff02191690555050600160008154809291906001900391905055507fcf4591cf2328393327ddb3696e50111ae979280d6d308307e75df4555d1f5884838360200151846040015185606001513360405180868152602001806020018581526020018481526020018373ffffffffffffffffffffffffffffffffffffffff1673ffffffffffffffffffffffffffffffffffffffff168152602001828103825286818151815260200191508051906020019080838360005b83811015610e57578082015181840152602081019050610e3c565b50505050905090810190601f168015610e845780820380516001836020036101000a031916815260200191505b50965050505050505060405180910390a1505050565b6002602052806000526040600020600091509050806000015490806001018054600181600116156101000203166002900480601f016020809104026020016040519081016040528092919081815260200182805460018160011615610100020316600290048015610f4c5780601f10610f2157610100808354040283529160200191610f4c565b820191906000526020600020905b815481529060010190602001808311610f2f57829003601f168201915b5050505050908060020154908060030154908060040160009054906101000a900473ffffffffffffffffffffffffffffffffffffffff16908060040160149054906101000a900460ff16905086565b828054600181600116156101000203166002900490600052602060002090601f016020900481019282601f10610fdc57805160ff191683800117855561100a565b8280016001018555821561100a579182015b82811115611009578251825591602001919060010190610fee565b5b50905061101791906110b2565b5090565b60c06040519081016040528060008152602001606081526020016000815260200160008152602001600073ffffffffffffffffffffffffffffffffffffffff1681526020016000151581525090565b50805460018160011615610100020316600290046000825580601f1061109057506110af565b601f0160209004906000526020600020908101906110ae91906110b2565b5b50565b6110d491905b808211156110d05760008160009055506001016110b8565b5090565b9056fea165627a7a72305820bca2a7173280d8d7a696bab32ea990f6c0f7b8ad10ecee7829683ed78a1264a80029",
  "source": "pragma solidity ^0.5.0;\n\ncontract Marketplace {\n  string public name;\n\n  struct Service{\n    uint id;\n    string name;\n    uint price;\n    uint timeInMinutes;\n    address payable owner;\n    bool purchased;\n  }\n\n  uint public serviceCount = 0;\n  mapping(uint => Service) public services;\n\n  // Log event for the creation of the service\n  event ServiceCreated(\n    uint id,\n    string name,\n    uint price,\n    uint timeInMinutes,\n    address payable owner,\n    bool purchased\n  );\n\n  // Log event for paying a service\n  event ServicePurchased(\n    uint id,\n    string name,\n    uint price,\n    uint timeInMinutes,\n    address payable owner,\n    bool purchased\n  );\n\n  // Log event for paying a service\n  event ServiceRemoved(\n    uint id,\n    string name,\n    uint price,\n    uint timeInMinutes,\n    address payable owner\n  );\n\n  constructor() public {\n    name = \"IRIDIA Swarm Marketplace\";\n  }\n\n  function createService(string memory _name, uint _price, uint _timeInMinutes) public {\n    // Make sure parameters are correct:\n    // require a _name\n    require(bytes(_name).length > 0);\n    // require a valid _price\n    require(_price > 0);\n    // require a valid time duration\n    require(_timeInMinutes > 0);\n    // increment service count\n    serviceCount++;\n    // create a service\n    services[serviceCount] = Service(serviceCount, _name, _price, _timeInMinutes, msg.sender, false);\n    // trigger an event\n    emit ServiceCreated(serviceCount, _name, _price, _timeInMinutes, msg.sender, false);\n  }\n\n  function purchaseService(uint _id, bytes32[] memory _inputData) public payable {\n    //fetch the services\n    Service memory _service = services[_id];\n    //fetch the owner\n    address payable _seller = _service.owner;\n    //make sure the service has a valid id\n    require(_service.id > 0 && _service.id <= serviceCount);\n    // require that there is enough Ether in the transaction\n    require(msg.value >= _service.price);\n    // Require that the service has not been purchased already\n    require(!_service.purchased);\n    // Require that the buyer is different from the seller\n    require(_seller != msg.sender);\n    // Require that the input data in not null\n    require(_inputData.length > 0);\n    // transfer ownership to the buyer\n    _service.owner = msg.sender;\n    // mark as purchased\n    _service.purchased = true;\n    // Update the service\n    services[_id] = _service;\n    // pay the seller by sending them Ether\n    address(_seller).transfer(msg.value);\n    // trigger an event\n    emit ServicePurchased(_id, _service.name, _service.price, _service.timeInMinutes, msg.sender, true);\n  }\n\n  function removeService(uint _id) public {\n    //fetch the services\n    Service memory _service = services[_id];\n    //fetch the owner\n    address _seller = _service.owner;\n    //make sure the service has a valid id\n    require(_service.id > 0 && _service.id <= serviceCount);\n    // Require that the service has not been purchased already\n    require(!_service.purchased);\n    // Require that the caller is the seller\n    require(_seller == msg.sender);\n    // Delete the service\n    delete services[_id];\n    //decrease serviceCount\n    serviceCount--;\n\n    // trigger an event\n    emit ServiceRemoved(_id, _service.name, _service.price, _service.timeInMinutes, msg.sender);\n  }\n}\n",
  "sourcePath": "/Users/eddie/marketplace/src/contracts/Marketplace.sol",
  "compiler": {
    "name": "solc",
    "version": "0.5.0+commit.1d4f565a.Emscripten.clang"
  },
  "schemaVersion": "3.0.2",
  "updatedAt": "2020-07-04T00:15:09.606Z",
  "devdoc": {
    "methods": {}
  },
  "userdoc": {
    "methods": {}
  }
}