{
  "contractName": "Marketplace",
  "abi": [
    {
      "constant": true,
      "inputs": [],
      "name": "serviceCount",
      "outputs": [
        {
          "name": "",
          "type": "uint256"
        }
      ],
      "payable": false,
      "stateMutability": "view",
      "type": "function"
    },
    {
      "constant": true,
      "inputs": [],
      "name": "name",
      "outputs": [
        {
          "name": "",
          "type": "string"
        }
      ],
      "payable": false,
      "stateMutability": "view",
      "type": "function"
    },
    {
      "constant": true,
      "inputs": [
        {
          "name": "",
          "type": "uint256"
        }
      ],
      "name": "services",
      "outputs": [
        {
          "name": "id",
          "type": "uint256"
        },
        {
          "name": "name",
          "type": "string"
        },
        {
          "name": "price",
          "type": "uint256"
        },
        {
          "name": "timeInMinutes",
          "type": "uint256"
        },
        {
          "name": "root",
          "type": "bytes32"
        },
        {
          "name": "seller",
          "type": "address"
        },
        {
          "name": "owner",
          "type": "address"
        },
        {
          "name": "purchased",
          "type": "bool"
        }
      ],
      "payable": false,
      "stateMutability": "view",
      "type": "function"
    },
    {
      "inputs": [],
      "payable": false,
      "stateMutability": "nonpayable",
      "type": "constructor"
    },
    {
      "anonymous": false,
      "inputs": [
        {
          "indexed": false,
          "name": "id",
          "type": "uint256"
        },
        {
          "indexed": false,
          "name": "name",
          "type": "string"
        },
        {
          "indexed": false,
          "name": "price",
          "type": "uint256"
        },
        {
          "indexed": false,
          "name": "timeInMinutes",
          "type": "uint256"
        },
        {
          "indexed": false,
          "name": "seller",
          "type": "address"
        },
        {
          "indexed": false,
          "name": "owner",
          "type": "address"
        },
        {
          "indexed": false,
          "name": "purchased",
          "type": "bool"
        }
      ],
      "name": "ServiceCreated",
      "type": "event"
    },
    {
      "anonymous": false,
      "inputs": [
        {
          "indexed": false,
          "name": "id",
          "type": "uint256"
        },
        {
          "indexed": false,
          "name": "name",
          "type": "string"
        },
        {
          "indexed": false,
          "name": "price",
          "type": "uint256"
        },
        {
          "indexed": false,
          "name": "timeInMinutes",
          "type": "uint256"
        },
        {
          "indexed": false,
          "name": "root",
          "type": "bytes32"
        },
        {
          "indexed": false,
          "name": "tasks",
          "type": "bytes32[]"
        },
        {
          "indexed": false,
          "name": "seller",
          "type": "address"
        },
        {
          "indexed": false,
          "name": "owner",
          "type": "address"
        },
        {
          "indexed": false,
          "name": "purchased",
          "type": "bool"
        }
      ],
      "name": "ServicePurchased",
      "type": "event"
    },
    {
      "anonymous": false,
      "inputs": [
        {
          "indexed": false,
          "name": "id",
          "type": "uint256"
        },
        {
          "indexed": false,
          "name": "name",
          "type": "string"
        },
        {
          "indexed": false,
          "name": "price",
          "type": "uint256"
        },
        {
          "indexed": false,
          "name": "timeInMinutes",
          "type": "uint256"
        },
        {
          "indexed": false,
          "name": "owner",
          "type": "address"
        }
      ],
      "name": "ServiceRemoved",
      "type": "event"
    },
    {
      "anonymous": false,
      "inputs": [
        {
          "indexed": false,
          "name": "id",
          "type": "uint256"
        },
        {
          "indexed": false,
          "name": "name",
          "type": "string"
        },
        {
          "indexed": false,
          "name": "price",
          "type": "uint256"
        },
        {
          "indexed": false,
          "name": "timeInMinutes",
          "type": "uint256"
        },
        {
          "indexed": false,
          "name": "root",
          "type": "bytes32"
        },
        {
          "indexed": false,
          "name": "tasks",
          "type": "bytes32[]"
        },
        {
          "indexed": false,
          "name": "results",
          "type": "bytes32[]"
        },
        {
          "indexed": false,
          "name": "seller",
          "type": "address"
        },
        {
          "indexed": false,
          "name": "owner",
          "type": "address"
        }
      ],
      "name": "ServiceResults",
      "type": "event"
    },
    {
      "constant": false,
      "inputs": [
        {
          "name": "_name",
          "type": "string"
        },
        {
          "name": "_price",
          "type": "uint256"
        },
        {
          "name": "_timeInMinutes",
          "type": "uint256"
        }
      ],
      "name": "createService",
      "outputs": [],
      "payable": false,
      "stateMutability": "nonpayable",
      "type": "function"
    },
    {
      "constant": false,
      "inputs": [
        {
          "name": "_id",
          "type": "uint256"
        },
        {
          "name": "_tasks",
          "type": "bytes32[]"
        },
        {
          "name": "_root",
          "type": "bytes32"
        }
      ],
      "name": "purchaseService",
      "outputs": [],
      "payable": true,
      "stateMutability": "payable",
      "type": "function"
    },
    {
      "constant": false,
      "inputs": [
        {
          "name": "_id",
          "type": "uint256"
        }
      ],
      "name": "removeService",
      "outputs": [],
      "payable": false,
      "stateMutability": "nonpayable",
      "type": "function"
    },
    {
      "constant": false,
      "inputs": [
        {
          "name": "_id",
          "type": "uint256"
        },
        {
          "name": "_results",
          "type": "bytes32[]"
        }
      ],
      "name": "setResultsOfServiceId",
      "outputs": [],
      "payable": true,
      "stateMutability": "payable",
      "type": "function"
    },
    {
      "constant": true,
      "inputs": [
        {
          "name": "_id",
          "type": "uint256"
        }
      ],
      "name": "getTasksOfServiceId",
      "outputs": [
        {
          "name": "",
          "type": "bytes32[]"
        }
      ],
      "payable": false,
      "stateMutability": "view",
      "type": "function"
    },
    {
      "constant": true,
      "inputs": [
        {
          "name": "_id",
          "type": "uint256"
        }
      ],
      "name": "getRootOfServiceId",
      "outputs": [
        {
          "name": "",
          "type": "bytes32"
        }
      ],
      "payable": false,
      "stateMutability": "view",
      "type": "function"
    }
  ],
  "bytecode": "0x608060405260006001553480156200001657600080fd5b506040805190810160405280601881526020017f49524944494120537761726d204d61726b6574706c616365000000000000000081525060009080519060200190620000649291906200006b565b506200011a565b828054600181600116156101000203166002900490600052602060002090601f016020900481019282601f10620000ae57805160ff1916838001178555620000df565b82800160010185558215620000df579182015b82811115620000de578251825591602001919060010190620000c1565b5b509050620000ee9190620000f2565b5090565b6200011791905b8082111562000113576000816000905550600101620000f9565b5090565b90565b611f92806200012a6000396000f3fe608060405260043610610099576000357c0100000000000000000000000000000000000000000000000000000000900463ffffffff168063062375261461009e57806306fdde03146100c9578063186166fe146101595780631a5e95aa146102355780638562b62d146102c55780638d412a00146103145780639b66b139146103e0578063c22c4f431461041b578063e24e0f7f1461055c575b600080fd5b3480156100aa57600080fd5b506100b361061e565b6040518082815260200191505060405180910390f35b3480156100d557600080fd5b506100de610624565b6040518080602001828103825283818151815260200191508051906020019080838360005b8381101561011e578082015181840152602081019050610103565b50505050905090810190601f16801561014b5780820380516001836020036101000a031916815260200191505b509250505060405180910390f35b34801561016557600080fd5b506102336004803603606081101561017c57600080fd5b810190808035906020019064010000000081111561019957600080fd5b8201836020820111156101ab57600080fd5b803590602001918460018302840111640100000000831117156101cd57600080fd5b91908080601f016020809104026020016040519081016040528093929190818152602001838380828437600081840152601f19601f82011690508083019250505050505050919291929080359060200190929190803590602001909291905050506106c2565b005b34801561024157600080fd5b5061026e6004803603602081101561025857600080fd5b8101908080359060200190929190505050610a55565b6040518080602001828103825283818151815260200191508051906020019060200280838360005b838110156102b1578082015181840152602081019050610296565b505050509050019250505060405180910390f35b3480156102d157600080fd5b506102fe600480360360208110156102e857600080fd5b8101908080359060200190929190505050610ac3565b6040518082815260200191505060405180910390f35b6103de6004803603606081101561032a57600080fd5b81019080803590602001909291908035906020019064010000000081111561035157600080fd5b82018360208201111561036357600080fd5b8035906020019184602083028401116401000000008311171561038557600080fd5b919080806020026020016040519081016040528093929190818152602001838360200280828437600081840152601f19601f82011690508083019250505050505050919291929080359060200190929190505050610ae3565b005b3480156103ec57600080fd5b506104196004803603602081101561040357600080fd5b810190808035906020019092919050505061117e565b005b34801561042757600080fd5b506104546004803603602081101561043e57600080fd5b8101908080359060200190929190505050611638565b60405180898152602001806020018881526020018781526020018681526020018573ffffffffffffffffffffffffffffffffffffffff1673ffffffffffffffffffffffffffffffffffffffff1681526020018473ffffffffffffffffffffffffffffffffffffffff1673ffffffffffffffffffffffffffffffffffffffff16815260200183151515158152602001828103825289818151815260200191508051906020019080838360005b8381101561051a5780820151818401526020810190506104ff565b50505050905090810190601f1680156105475780820380516001836020036101000a031916815260200191505b50995050505050505050505060405180910390f35b61061c6004803603604081101561057257600080fd5b81019080803590602001909291908035906020019064010000000081111561059957600080fd5b8201836020820111156105ab57600080fd5b803590602001918460208302840111640100000000831117156105cd57600080fd5b919080806020026020016040519081016040528093929190818152602001838360200280828437600081840152601f19601f820116905080830192505050505050509192919290505050611765565b005b60015481565b60008054600181600116156101000203166002900480601f0160208091040260200160405190810160405280929190818152602001828054600181600116156101000203166002900480156106ba5780601f1061068f576101008083540402835291602001916106ba565b820191906000526020600020905b81548152906001019060200180831161069d57829003601f168201915b505050505081565b600083511115156106d257600080fd5b6000821115156106e157600080fd5b6000811115156106f057600080fd5b6001600081548092919060010191905055506101406040519081016040528060015481526020018481526020018381526020018281526020016000801916815260200160006040519080825280602002602001820160405280156107635781602001602082028038833980820191505090505b50815260200160006040519080825280602002602001820160405280156107995781602001602082028038833980820191505090505b5081526020013373ffffffffffffffffffffffffffffffffffffffff1681526020013373ffffffffffffffffffffffffffffffffffffffff16815260200160001515815250600260006001548152602001908152602001600020600082015181600001556020820151816001019080519060200190610819929190611d61565b5060408201518160020155606082015181600301556080820151816004015560a0820151816005019080519060200190610854929190611de1565b5060c0820151816006019080519060200190610871929190611de1565b5060e08201518160070160006101000a81548173ffffffffffffffffffffffffffffffffffffffff021916908373ffffffffffffffffffffffffffffffffffffffff1602179055506101008201518160080160006101000a81548173ffffffffffffffffffffffffffffffffffffffff021916908373ffffffffffffffffffffffffffffffffffffffff1602179055506101208201518160080160146101000a81548160ff0219169083151502179055509050507fe6a8954c2694f771902a50d2113d3f7f17a11cf63e4b4e4c22c00ffb67fb1a316001548484843333600060405180888152602001806020018781526020018681526020018573ffffffffffffffffffffffffffffffffffffffff1673ffffffffffffffffffffffffffffffffffffffff1681526020018473ffffffffffffffffffffffffffffffffffffffff1673ffffffffffffffffffffffffffffffffffffffff16815260200183151515158152602001828103825288818151815260200191508051906020019080838360005b83811015610a105780820151818401526020810190506109f5565b50505050905090810190601f168015610a3d5780820380516001836020036101000a031916815260200191505b509850505050505050505060405180910390a1505050565b606060026000838152602001908152602001600020600501805480602002602001604051908101604052809291908181526020018280548015610ab757602002820191906000526020600020905b815481526020019060010190808311610aa3575b50505050509050919050565b600060026000838152602001908152602001600020600401549050919050565b610aeb611e2e565b60026000858152602001908152602001600020610140604051908101604052908160008201548152602001600182018054600181600116156101000203166002900480601f016020809104026020016040519081016040528092919081815260200182805460018160011615610100020316600290048015610bae5780601f10610b8357610100808354040283529160200191610bae565b820191906000526020600020905b815481529060010190602001808311610b9157829003601f168201915b5050505050815260200160028201548152602001600382015481526020016004820154815260200160058201805480602002602001604051908101604052809291908181526020018280548015610c2457602002820191906000526020600020905b815481526020019060010190808311610c10575b5050505050815260200160068201805480602002602001604051908101604052809291908181526020018280548015610c7c57602002820191906000526020600020905b815481526020019060010190808311610c68575b505050505081526020016007820160009054906101000a900473ffffffffffffffffffffffffffffffffffffffff1673ffffffffffffffffffffffffffffffffffffffff1673ffffffffffffffffffffffffffffffffffffffff1681526020016008820160009054906101000a900473ffffffffffffffffffffffffffffffffffffffff1673ffffffffffffffffffffffffffffffffffffffff1673ffffffffffffffffffffffffffffffffffffffff1681526020016008820160149054906101000a900460ff161515151581525050905060008160000151118015610d685750600154816000015111155b1515610d7357600080fd5b80604001513410151515610d8657600080fd5b806101200151151515610d9857600080fd5b3373ffffffffffffffffffffffffffffffffffffffff168160e0015173ffffffffffffffffffffffffffffffffffffffff1614151515610dd757600080fd5b60008351111515610de757600080fd5b60006001028214151515610dfa57600080fd5b828160a00181905250818160800181815250503381610100019073ffffffffffffffffffffffffffffffffffffffff16908173ffffffffffffffffffffffffffffffffffffffff16815250506001816101200190151590811515815250508060026000868152602001908152602001600020600082015181600001556020820151816001019080519060200190610e92929190611d61565b5060408201518160020155606082015181600301556080820151816004015560a0820151816005019080519060200190610ecd929190611de1565b5060c0820151816006019080519060200190610eea929190611de1565b5060e08201518160070160006101000a81548173ffffffffffffffffffffffffffffffffffffffff021916908373ffffffffffffffffffffffffffffffffffffffff1602179055506101008201518160080160006101000a81548173ffffffffffffffffffffffffffffffffffffffff021916908373ffffffffffffffffffffffffffffffffffffffff1602179055506101208201518160080160146101000a81548160ff0219169083151502179055509050508060e0015173ffffffffffffffffffffffffffffffffffffffff166108fc349081150290604051600060405180830381858888f19350505050158015610fe8573d6000803e3d6000fd5b507fc16a5fbe7463a0bc85d97118384f50b38c24ec0edd96251efe6a7316497d87518482602001518360400151846060015186888760e001518861010001516001604051808a815260200180602001898152602001888152602001878152602001806020018673ffffffffffffffffffffffffffffffffffffffff1673ffffffffffffffffffffffffffffffffffffffff1681526020018573ffffffffffffffffffffffffffffffffffffffff1673ffffffffffffffffffffffffffffffffffffffff1681526020018415151515815260200183810383528b818151815260200191508051906020019080838360005b838110156110f35780820151818401526020810190506110d8565b50505050905090810190601f1680156111205780820380516001836020036101000a031916815260200191505b50838103825287818151815260200191508051906020019060200280838360005b8381101561115c578082015181840152602081019050611141565b505050509050019b50505050505050505050505060405180910390a150505050565b611186611e2e565b60026000838152602001908152602001600020610140604051908101604052908160008201548152602001600182018054600181600116156101000203166002900480601f0160208091040260200160405190810160405280929190818152602001828054600181600116156101000203166002900480156112495780601f1061121e57610100808354040283529160200191611249565b820191906000526020600020905b81548152906001019060200180831161122c57829003601f168201915b50505050508152602001600282015481526020016003820154815260200160048201548152602001600582018054806020026020016040519081016040528092919081815260200182805480156112bf57602002820191906000526020600020905b8154815260200190600101908083116112ab575b505050505081526020016006820180548060200260200160405190810160405280929190818152602001828054801561131757602002820191906000526020600020905b815481526020019060010190808311611303575b505050505081526020016007820160009054906101000a900473ffffffffffffffffffffffffffffffffffffffff1673ffffffffffffffffffffffffffffffffffffffff1673ffffffffffffffffffffffffffffffffffffffff1681526020016008820160009054906101000a900473ffffffffffffffffffffffffffffffffffffffff1673ffffffffffffffffffffffffffffffffffffffff1673ffffffffffffffffffffffffffffffffffffffff1681526020016008820160149054906101000a900460ff1615151515815250509050600081610100015190506000826000015111801561140d5750600154826000015111155b151561141857600080fd5b81610120015115151561142a57600080fd5b3373ffffffffffffffffffffffffffffffffffffffff168173ffffffffffffffffffffffffffffffffffffffff1614151561146457600080fd5b600260008481526020019081526020016000206000808201600090556001820160006114909190611eb3565b6002820160009055600382016000905560048201600090556005820160006114b89190611efb565b6006820160006114c89190611efb565b6007820160006101000a81549073ffffffffffffffffffffffffffffffffffffffff02191690556008820160006101000a81549073ffffffffffffffffffffffffffffffffffffffff02191690556008820160146101000a81549060ff02191690555050600160008154809291906001900391905055507fcf4591cf2328393327ddb3696e50111ae979280d6d308307e75df4555d1f5884838360200151846040015185606001513360405180868152602001806020018581526020018481526020018373ffffffffffffffffffffffffffffffffffffffff1673ffffffffffffffffffffffffffffffffffffffff168152602001828103825286818151815260200191508051906020019080838360005b838110156115f55780820151818401526020810190506115da565b50505050905090810190601f1680156116225780820380516001836020036101000a031916815260200191505b50965050505050505060405180910390a1505050565b6002602052806000526040600020600091509050806000015490806001018054600181600116156101000203166002900480601f0160208091040260200160405190810160405280929190818152602001828054600181600116156101000203166002900480156116ea5780601f106116bf576101008083540402835291602001916116ea565b820191906000526020600020905b8154815290600101906020018083116116cd57829003601f168201915b5050505050908060020154908060030154908060040154908060070160009054906101000a900473ffffffffffffffffffffffffffffffffffffffff16908060080160009054906101000a900473ffffffffffffffffffffffffffffffffffffffff16908060080160149054906101000a900460ff16905088565b61176d611e2e565b60026000848152602001908152602001600020610140604051908101604052908160008201548152602001600182018054600181600116156101000203166002900480601f0160208091040260200160405190810160405280929190818152602001828054600181600116156101000203166002900480156118305780601f1061180557610100808354040283529160200191611830565b820191906000526020600020905b81548152906001019060200180831161181357829003601f168201915b50505050508152602001600282015481526020016003820154815260200160048201548152602001600582018054806020026020016040519081016040528092919081815260200182805480156118a657602002820191906000526020600020905b815481526020019060010190808311611892575b50505050508152602001600682018054806020026020016040519081016040528092919081815260200182805480156118fe57602002820191906000526020600020905b8154815260200190600101908083116118ea575b505050505081526020016007820160009054906101000a900473ffffffffffffffffffffffffffffffffffffffff1673ffffffffffffffffffffffffffffffffffffffff1673ffffffffffffffffffffffffffffffffffffffff1681526020016008820160009054906101000a900473ffffffffffffffffffffffffffffffffffffffff1673ffffffffffffffffffffffffffffffffffffffff1673ffffffffffffffffffffffffffffffffffffffff1681526020016008820160149054906101000a900460ff161515151581525050905080610120015115156119e157600080fd5b3373ffffffffffffffffffffffffffffffffffffffff168160e0015173ffffffffffffffffffffffffffffffffffffffff16141515611a1f57600080fd5b60028160a0015151028251141515611a3657600080fd5b818160c001819052508060026000858152602001908152602001600020600082015181600001556020820151816001019080519060200190611a79929190611d61565b5060408201518160020155606082015181600301556080820151816004015560a0820151816005019080519060200190611ab4929190611de1565b5060c0820151816006019080519060200190611ad1929190611de1565b5060e08201518160070160006101000a81548173ffffffffffffffffffffffffffffffffffffffff021916908373ffffffffffffffffffffffffffffffffffffffff1602179055506101008201518160080160006101000a81548173ffffffffffffffffffffffffffffffffffffffff021916908373ffffffffffffffffffffffffffffffffffffffff1602179055506101208201518160080160146101000a81548160ff0219169083151502179055509050507f102cfd48a0366e81c566d4703df611e84854c5fd0943322c467c4c965d65a87e8382602001518360400151846060015185608001518660a001518760c001518860e00151896101000151604051808a81526020018060200189815260200188815260200187815260200180602001806020018673ffffffffffffffffffffffffffffffffffffffff1673ffffffffffffffffffffffffffffffffffffffff1681526020018573ffffffffffffffffffffffffffffffffffffffff1673ffffffffffffffffffffffffffffffffffffffff16815260200184810384528c818151815260200191508051906020019080838360005b83811015611c94578082015181840152602081019050611c79565b50505050905090810190601f168015611cc15780820380516001836020036101000a031916815260200191505b50848103835288818151815260200191508051906020019060200280838360005b83811015611cfd578082015181840152602081019050611ce2565b50505050905001848103825287818151815260200191508051906020019060200280838360005b83811015611d3f578082015181840152602081019050611d24565b505050509050019c5050505050505050505050505060405180910390a1505050565b828054600181600116156101000203166002900490600052602060002090601f016020900481019282601f10611da257805160ff1916838001178555611dd0565b82800160010185558215611dd0579182015b82811115611dcf578251825591602001919060010190611db4565b5b509050611ddd9190611f1c565b5090565b828054828255906000526020600020908101928215611e1d579160200282015b82811115611e1c578251825591602001919060010190611e01565b5b509050611e2a9190611f41565b5090565b6101406040519081016040528060008152602001606081526020016000815260200160008152602001600080191681526020016060815260200160608152602001600073ffffffffffffffffffffffffffffffffffffffff168152602001600073ffffffffffffffffffffffffffffffffffffffff1681526020016000151581525090565b50805460018160011615610100020316600290046000825580601f10611ed95750611ef8565b601f016020900490600052602060002090810190611ef79190611f1c565b5b50565b5080546000825590600052602060002090810190611f199190611f41565b50565b611f3e91905b80821115611f3a576000816000905550600101611f22565b5090565b90565b611f6391905b80821115611f5f576000816000905550600101611f47565b5090565b9056fea165627a7a72305820ce33552ff25745dd50ff0435fa77018c266771119194bf6a82f67e8b5ca0f51f0029",
  "source": "pragma solidity ^0.5.0;\n\ncontract Marketplace {\n  string public name;\n\n  struct Service{\n    uint id;\n    string name;\n    uint price;\n    uint timeInMinutes;\n    bytes32 root;\n    bytes32[] tasks;\n    bytes32[] results;\n    address payable seller;\n    address payable owner;\n    bool purchased;\n  }\n\n  uint public serviceCount = 0;\n  mapping(uint => Service) public services;\n\n  // Log event for the creation of the service\n  event ServiceCreated(\n    uint id,\n    string name,\n    uint price,\n    uint timeInMinutes,\n    address payable seller,\n    address payable owner,\n    bool purchased\n  );\n\n  // Log event for purchasing a service\n  event ServicePurchased(\n    uint id,\n    string name,\n    uint price,\n    uint timeInMinutes,\n    bytes32 root,\n    bytes32[] tasks,\n    address payable seller,\n    address payable owner,\n    bool purchased\n  );\n\n  // Log event for removing a service\n  event ServiceRemoved(\n    uint id,\n    string name,\n    uint price,\n    uint timeInMinutes,\n    address payable owner\n  );\n\n  // Log event for availability of results in service\n  event ServiceResults(\n    uint id,\n    string name,\n    uint price,\n    uint timeInMinutes,\n    bytes32 root,\n    bytes32[] tasks,\n    bytes32[] results,\n    address payable seller,\n    address payable owner\n  );\n\n  constructor() public {\n    name = \"IRIDIA Swarm Marketplace\";\n  }\n\n  function createService(string memory _name, uint _price, uint _timeInMinutes) public {\n    // Make sure parameters are correct:\n    // require a _name\n    require(bytes(_name).length > 0);\n    // require a valid _price\n    require(_price > 0);\n    // require a valid time duration\n    require(_timeInMinutes > 0);\n    // increment service count\n    serviceCount++;\n    // create a service\n    services[serviceCount] = Service(serviceCount, _name, _price, _timeInMinutes, '', new bytes32[](0), new bytes32[](0), msg.sender, msg.sender, false);\n    // trigger an event\n    emit ServiceCreated(serviceCount, _name, _price, _timeInMinutes, msg.sender, msg.sender, false);\n  }\n\n  function purchaseService(uint _id, bytes32[] memory _tasks, bytes32 _root) public payable {\n    //fetch the services\n    Service memory _service = services[_id];\n    //make sure the service has a valid id\n    require(_service.id > 0 && _service.id <= serviceCount);\n    // require that there is enough Ether in the transaction\n    require(msg.value >= _service.price);\n    // Require that the service has not been purchased already\n    require(!_service.purchased);\n    // Require that the buyer is different from the seller\n    require(_service.seller != msg.sender);\n    // Require that the input tasks are not null\n    require(_tasks.length > 0);\n    // Require that the root of the MT in not null\n    require(_root != 0);\n    // assign the received input tasks inside the service\n    _service.tasks = _tasks;\n    // assign the received MT root inside the service\n    _service.root = _root;\n    // transfer ownership to the buyer\n    _service.owner = msg.sender;\n    // mark as purchased\n    _service.purchased = true;\n    // Update the service\n    services[_id] = _service;\n    // pay the seller by sending them Ether\n    address(_service.seller).transfer(msg.value);\n    // trigger an event\n    emit ServicePurchased(_id, _service.name, _service.price, _service.timeInMinutes,\n                          _root, _tasks,\n                          _service.seller, _service.owner,\n                          true);\n  }\n\n  function removeService(uint _id) public {\n    //fetch the services\n    Service memory _service = services[_id];\n    //fetch the owner\n    address _seller = _service.owner;\n    //make sure the service has a valid id\n    require(_service.id > 0 && _service.id <= serviceCount);\n    // Require that the service has not been purchased already\n    require(!_service.purchased);\n    // Require that the caller is the seller\n    require(_seller == msg.sender);\n    // Delete the service\n    delete services[_id];\n    //decrease serviceCount\n    serviceCount--;\n    // trigger an event\n    emit ServiceRemoved(_id, _service.name, _service.price, _service.timeInMinutes, msg.sender);\n  }\n\n  function setResultsOfServiceId(uint _id, bytes32[] memory _results) public payable {\n    // Fetch the service\n    Service memory _service = services[_id];\n    // Require that the service has been purchased already\n    require(_service.purchased);\n    // Require that the caller is equal to the original seller\n    require(_service.seller == msg.sender);\n    // Require that the results' size is two-fold to the task length array\n    require(_results.length == _service.tasks.length * 2);\n    // Set results inside the service instance\n    _service.results = _results;\n    // Update the service\n    services[_id] = _service;\n    // trigger the results event\n    emit ServiceResults(_id, _service.name, _service.price, _service.timeInMinutes,\n                        _service.root, _service.tasks, _service.results,\n                        _service.seller, _service.owner);\n  }\n\n  function getTasksOfServiceId(uint _id) public view returns (bytes32[] memory) {\n    return services[_id].tasks;\n  }\n\n  function getRootOfServiceId(uint _id) public view returns (bytes32) {\n    return services[_id].root;\n  }\n}\n",
  "sourcePath": "/Users/eddie/marketplace/src/contracts/Marketplace.sol",
  "compiler": {
    "name": "solc",
    "version": "0.5.0+commit.1d4f565a.Emscripten.clang"
  },
  "schemaVersion": "3.0.2",
  "updatedAt": "2020-07-10T20:50:27.346Z",
  "devdoc": {
    "methods": {}
  },
  "userdoc": {
    "methods": {}
  }
}